:070000000202FE02025C3265
:10000B00020006020162EC5D046005E8590470030E
:10001B00020158120123580460F6EC4860F2EC70B0
:10002B0004FDFEFF22C860DB2481C85009C3986021
:10003B0002500602015F9850CAF582E9294B4A70BB
:10004B0005AB8202014E75F0007C1A7880C3EF9BE2
:10005B00EE9AED99400DC3EF9BFFEE9AFEED99FDE5
:10006B00E842F0DC23ACF0D0E0FFD0E0FED0E0FDC6
:10007B00AB8220E7101BEB60BAEC2CFCEF33FFEEEE
:10008B0033FEED33FD02013AE803F830E705C0F02B
:10009B0075F000EF2FFFEE33FEED33FD40B830E788
:1000AB00C280AA75F020800E75F010800575F008DF
:1000BB007D007E007F003392D530D50312024EECCB
:1000CB00334010EF33FFEE33FEED33FDEC33FCD555
:1000DB00F0ED22E5F0247EA2D513CC92E7CDCEFF36
:1000EB0022EDD2E7CD33EC3392D524814006E4FFE9
:1000FB00FEFDFC22FCE4CFCECDCC24E0501174FFEE
:10010B0080EDC3CC13CCCD13CDCE13CECF13CF04F8
:10011B0070F030D5DE02024EE9D2E7C933E833F88E
:10012B0092D5EDD2E7CD33EC33FC5002B2D522ECB5
:10013B0030E7100FBF000C0EBE00080DBD00040B06
:10014B00EB6014A2D5EB13FCED92E7FD2274FFFCE0
:10015B00FDFEFF22E480F8A2D574FF13FC7D80E442
:10016B0080EFBB010689828A83E0225002E722BB23
:10017B00FE02E32289828A83E49322BB010CE5828F
:10018B0029F582E5833AF583E0225006E92582F8CA
:10019B00E622BBFE06E92582F8E222E58229F582FA
:1001AB00E5833AF583E49322BB010689828A83F0C7
:1001BB00225002F722BBFE01F322F8BB010DE582B0
:1001CB0029F582E5833AF583E8F0225006E925828A
:1001DB00C8F622BBFE05E92582C8F222EF8DF0A4FA
:1001EB00A8F0CF8CF0A428CE8DF0A42EFE22BC005C
:1001FB000BBE0029EF8DF084FFADF022E4CCF87537
:10020B00F008EF2FFFEE33FEEC33FCEE9DEC984045
:10021B0005FCEE9DFE0FD5F0E9E4CEFD22EDF8F5E1
:10022B00F0EE8420D21CFEADF075F008EF2FFFED41
:10023B0033FD4007985006D5F0F222C398FD0FD539
:10024B00F0EA22C3E49FFFE49EFEE49DFDE49CFCE8
:10025B0022C282E580640160FA1202E88F087E00F8
:10026B00C3EF9414748094805002D282D3EF943CE9
:10027B00EE648094804002C282C3EF9414EE6480DB
:10028B00948040CFD3EF943CEE6480948050C412A2
:10029B0002E88F097E00C3EF94147480948040B3FE
:1002AB00D3EF943C7480948050A9D2827FF40E12C9
:1002BB0002C8C2827FF47E011202C880D2E4FDFC28
:1002CB00C3ED9FEC9E5015E4FBFA0BBB00010AEB50
:1002DB0064714A70F50DBD00010C80E422C290D20E
:1002EB0092C292D2922093FDC290C291AFA0D291B2
:0F02FB00D29022787FE4F6D8FD758109020003C6
:00000001FF
